:020000040000FA
:100000000C9452010C9483010C9483010C94830191
:100010000C9483010C9483010C9483010C94830150
:100020000C9483010C9483010C9483010C94830140
:100030000C9483010C9483010C9483010C94830130
:100040000C9483010C9483010C9483010C94830120
:100050000C9483010C9483010C9483010C941B0970
:100060000C9483010C94E5080C94BB080C94830158
:100070000C9483010C9483010C9483010C948301F0
:100080000C9483010C9483010C9483010C948301E0
:100090000C9483010C9483010C9483010C946509E6
:1000A0000C9483010C9483010C9483010C948301C0
:1000B0000C9483010C9483010C9483010C948301B0
:1000C0000C9483010C9483010C9483010C948301A0
:1000D0000C9483010C9483010C9483010C94830190
:1000E0000C948301084AD73B3BCE016E84BCBFFD14
:1000F000C12F3D6C74319ABD56833DDA3D00C77FF8
:1001000011BED9E4BB4C3E916BAAAABE0000008090
:100110003F000C9421030C948D070C9433030C9432
:1001200029030C9417030C94890A0C94E5010C9490
:10013000CC050C94EB020C941B030C9406030C945A
:100140009F030C942F030C940A030C94BD060C948B
:100150001D020C9411030C94D7010C94C3010C9450
:1001600037030C9486010C940E030C94F0020C944B
:10017000920E0C94BD050C9425030C943D030C9435
:1001800087010C949E030C946A020C94B4010C94A5
:1001900002030C948F070C94E6050C943E080C9413
:1001A000BC050C9413060C9485010C9441030C942B
:1001B000DF0500002200250028002B002E00310062
:1001C000340002010000050108010B0105050505C9
:1001D000070508080808020202020A0A08080404BF
:1001E00004040101010101010101030303030303ED
:1001F0000303040707070C0C0C0C0C0C0C0C02027C
:10020000020206060606060606060B0B0B0B0B0B78
:100210000B0B010210202008081020401020408005
:1002200002010201080402010102040810204080BA
:100230008040201008040201800402018040201048
:100240000804020108040201010204081020408091
:10025000010204081020408000000A0B02090C0D66
:100260000E08070304010000000000000000000069
:10027000000000000000000000000000000000007E
:10028000000000001211100000000000000000003B
:10029000000000000000000000000000000000005E
:1002A000890A920E11241FBECFEFD1E2DEBFCDBF6F
:1002B00000E00CBF24E0A8E8B2E001C01D92A1312B
:1002C000B207E1F712E0A0E0B2E0E0E7F8E200E018
:1002D0000BBF02C007900D92A838B107D9F711E003
:1002E000C1E5D1E000E006C021970109802FFE01A1
:1002F0000E94F911C035D10780E00807A9F70E94D4
:10030000470B0C9426140C94000008950895AF92A6
:10031000BF92CF92DF92EF92FF920F931F93CF93F2
:10032000DF936C017B018B01040F151FEB015E0154
:10033000AE18BF08C017D10759F06991D601ED91E9
:10034000FC910190F081E02DC6011995892B79F778
:10035000C501DF91CF911F910F91FF90EF90DF903A
:10036000CF90BF90AF900895FC01538D448D252F01
:1003700030E0842F90E0821B930B541710F0CF963F
:10038000089501970895FC01918D828D981761F071
:10039000A28DAE0FBF2FB11D5D968C91928D9F5F88
:1003A0009F73928F90E008958FEF9FEF0895FC0167
:1003B000918D828D981731F0828DE80FF11D858D1A
:1003C00090E008958FEF9FEF0895FC01918D228DAD
:1003D000892F90E0805C9F4F821B91098F73992732
:1003E00008958CE493E00E94E50121E0892B09F453
:1003F00020E0822F0895FC01A48DA80FB92FB11D14
:10040000A35ABF4F2C91848D90E001968F7399274A
:10041000848FA689B7892C93A089B1898C91837028
:1004200080648C93938D848D981306C00288F38921
:10043000E02D80818F7D80830895EF92FF920F934E
:100440001F93CF93DF93EC0181E0888F9B8D8C8D80
:1004500098131AC0E889F989808185FF15C09FB774
:10046000F894EE89FF896083E889F9898081837037
:10047000806480839FBF81E090E0DF91CF911F91E6
:100480000F91FF90EF900895F62E0B8D10E00F5F07
:100490001F4F0F731127E02E8C8D8E110CC00FB6DD
:1004A00007FCFACFE889F989808185FFF5CFCE0175
:1004B0000E94FB01F1CFEB8DEC0FFD2FF11DE35AF4
:1004C000FF4FF0829FB7F8940B8FEA89FB898081F8
:1004D0008062CFCFCF93DF93EC01888D8823B9F072
:1004E000AA89BB89E889F9898C9185FD03C080813F
:1004F00086FD0DC00FB607FCF7CF8C9185FFF2CFBC
:10050000808185FFEDCFCE010E94FB01E9CFDF9115
:10051000CF91089580E090E0892B29F00E94F101AD
:1005200081110E94000080E090E0892B49F080E07A
:1005300090E0892B29F00E94000081110E940000A8
:1005400080E090E0892B49F080E090E0892B29F051
:100550000E94000081110E94000080E090E0892B41
:1005600049F080E090E0892B29F00E940000811181
:100570000C9400000895282F30E0F901E85AFD4F4F
:100580009491F901EE5EFD4F449124533E4FF901E1
:100590002491222309F435C0992311F1915092310D
:1005A000F8F4E92FF0E08827E752FD4F8F4F0C94C5
:1005B000F9110A030E03EB0202030603F002110312
:1005C00017031B032103250329032F033303F00221
:1005D00037033D034103809180008F778093800033
:1005E000E22FF0E0EE0FFF1FEE54FE4FA591B49105
:1005F0008FB7F894EC91611148C040954E234C930D
:100600008FBF0895809180008F7DE8CF809180001A
:10061000877FE4CF84B58F7784BDE2CF84B58F7DAB
:10062000FBCF8091B0008F778093B000D9CF8091BD
:10063000B0008F7DF9CF809190008F7780939000EC
:10064000CFCF809190008F7DF9CF80919000877FF0
:10065000F5CF8091A0008F778093A000C1CF8091CB
:10066000A0008F7DF9CF8091A000877FF5CF80918A
:1006700020018F7780932001B3CF809120018F7D5F
:10068000F9CF80912001877FF5CF4E2BB8CF3FB7B0
:10069000F8948091D1029091D202A091D302B091AE
:1006A000D40226B5A89B05C02F3F19F00196A11DC5
:1006B000B11D3FBFBA2FA92F982F8827BC01CD01AC
:1006C000620F711D811D911D42E0660F771F881F0B
:1006D000991F4A95D1F708958F929F92AF92BF923A
:1006E000CF92DF92EF92FF924B015C010E94470391
:1006F0006B017C010E9447036C197D098E099F09DB
:10070000683E734081059105A8F321E0821A9108A3
:10071000A108B10888EEC80E83E0D81EE11CF11CC8
:1007200081149104A104B10429F7FF90EF90DF90A8
:10073000CF90BF90AF909F908F90089508950895A7
:100740002091A902260F3327331F21323105ECF403
:1007500020912203FC0190E080E0243069F082E0E7
:100760000895A091A9022191AC0147575D4FA40FB4
:10077000B52FB11D2C930196861798F38091A9028D
:10078000680F6093A90280E0089581E008951092B7
:10079000220381E0809321031092FC0261E084E156
:1007A0000E94BB0261E085E10E94BB02E9EBF0E040
:1007B00080818E7F808380818D7F808388E4809399
:1007C000B80085E48093BC000895CF93DF9391E057
:1007D000909388028823B9F0C091B800D091BA00F4
:1007E0008091BC008A7B8093BC0060E084E10E9421
:1007F000BB0260E085E10E94BB020E94C703D09368
:10080000BA00C093B800DF91CF910895CF92DF92E4
:10081000EF92FF920F931F93CF93DF93D0914B03EF
:1008200081E0D13208F09CC0C0914A030E94470386
:100830006B017C018091220381116CC082E0809366
:10084000220381E0809321038FEF80932003109295
:100850001F03D0931E03AAE2B3E0EEEFF2E080E0C4
:10086000D8138DC01092FD028091FD02CC0FC82BD1
:10087000C093FD028091FC02813009F084C0109287
:10088000FC020E9447036B017C018091FD02809372
:10089000BB008091240390912503A0912603B09181
:1008A0002703892B8A2B8B2BA1F00E9447030091F1
:1008B00024031091250320912603309127036C19FE
:1008C0007D098E099F09061717072807390708F4BD
:1008D00042C08091BC0083FDD8CF85EC8093BC00E2
:1008E0000E9447036B017C0180912203823009F44E
:1008F0004CC0809120038F3F09F469C08091200390
:10090000803209F466C080912003803309F463C00B
:1009100084E026C08091240390912503A0912603B2
:10092000B0912703892B8A2B8B2B09F483CF0E944C
:100930004703009124031091250320912603309151
:1009400027036C197D098E099F09061717072807C9
:10095000390708F06FCF809123030E94E50385E0FB
:100960001092290310924B0310922803DF91CF912C
:100970001F910F91FF90EF90DF90CF9008959D9180
:1009800091938F5F6DCF85EEA9CF809124039091D5
:100990002503A0912603B0912703892B8A2B8B2B4B
:1009A00009F4A2CF0E94470300912403109125036C
:1009B00020912603309127036C197D098E099F0928
:1009C000061717072807390708F08ECFC4CF80E035
:1009D000C7CF82E0C5CF83E0C3CFCF92DF92EF9243
:1009E000FF920F931F93CF93DF93D82FC62F6132BF
:1009F00008F098C00E9447036B017C01809122039C
:100A000081116BC081E080932203809321039FEFCB
:100A10009093200310921F039C0F90931E038093CA
:100A2000FD028091FD02DD0FD82BD093FD02809155
:100A3000FC02813009F078C01092FC020E9447034A
:100A40006B017C018091FD028093BB0080912403A7
:100A500090912503A0912603B0912703892B8A2B1F
:100A60008B2BA1F00E9447030091240310912503D2
:100A700020912603309127036C197D098E099F0967
:100A8000061717072807390708F448C08091BC00EB
:100A900083FDD8CF85EC8093BC000E9447036B0197
:100AA0007C0180912203813009F440C080911F03B2
:100AB0008C1710F4C0911F03EEEFF2E0ACEDB2E042
:100AC00080E08C1355C08C2FDF91CF911F910F9137
:100AD000FF90EF90DF90CF90089580912403909144
:100AE0002503A0912603B0912703892B8A2B8B2BFA
:100AF00009F484CF0E944703009124031091250339
:100B000020912603309127036C197D098E099F09D6
:100B1000061717072807390708F070CF80912303BD
:100B20000E94E503C0E0CFCF85EEB5CF80912403CE
:100B300090912503A0912603B0912703892B8A2B3E
:100B40008B2B09F4AECF0E94470300912403109130
:100B5000250320912603309127036C197D098E0906
:100B60009F09061717072807390708F09ACFD6CF2D
:100B700091919D938F5FA5CF0895E091DB028091C5
:100B8000DA02E81730F4F0E0E452FD4F808190E0A3
:100B900008958FEF9FEF08959091DB028091DA0224
:100BA0002FEF3FEF981748F4E92FF0E0E452FD4FA4
:100BB000208130E09F5F9093DB02C901089580910E
:100BC000DA029091DB02891B990B0895CF92DF9294
:100BD000EF92FF920F931F93CF93DF937C01CB0192
:100BE0008A0120912803222389F0EB016B01C40EB6
:100BF000D51ECC15DD0569F06991D701ED91FC9109
:100C00000190F081E02DC7011995F3CF642F0E9468
:100C1000A003C801DF91CF911F910F91FF90EF903A
:100C2000DF90CF900895CF93DF931F92CDB7DEB7BB
:100C30006983209128032223F9F020914B0320326D
:100C400058F021E030E0FC013383228390E080E023
:100C50000F90DF91CF91089580912903E82FF0E064
:100C6000E65DFC4F998190838F5F80932903809389
:100C70004B0381E090E0ECCF61E0CE0101960E9451
:100C8000A003F7CF682F89EE93E00C9413061F930F
:100C9000CF93DF93EC018C859D85AE85BF858F3F1B
:100CA0009F4FAF4FBF4F51F111E01093280380E7E2
:100CB00080934A031092290310924B0380E890E03E
:100CC0000E9442060E9406041093280381E7809345
:100CD0004A031092290310924B0381E090E00C84A8
:100CE00002C0880F991F0A94E2F70E9442060E94F0
:100CF000060481E0DF91CF911F91089548855985C1
:100D00006A857B854F3F8FEF58076807780789F31F
:100D100081E08093280380E780934A03109229039F
:100D200010924B0381E090E002C0880F991F4A9512
:100D3000E2F7DBCFCF93DF93D82FC62F85EF93E079
:100D40000E9447068091F80391E0909328038093D6
:100D50004A031092290310924B036D2F89EE93E002
:100D60000E9413066C2F89EE93E00E9413060E94E6
:100D7000060481E0DF91CF91089590E080E008952E
:100D800091E09093280390E790934A0310922903EF
:100D900010924B0321E030E0A90102C0440F551F1F
:100DA0008A95E2F7CA010E9442060C940604EF926B
:100DB000FF920F931F93CF93DF93EC01F62E042F36
:100DC000E52E122F0E9447068B8191E09093280315
:100DD00080934A031092290310924B036F2D89EEE2
:100DE00093E00E9413060E940604612F8B810E94EB
:100DF000ED041092DB028093DA02F02EC02FDE2D7C
:100E000089EE93E00E94CC0589938C2F8F1981176E
:100E1000B8F381E0DF91CF911F910F91FF90EF9098
:100E200008951F93CF93DF93182F85EF93E00E94CF
:100E30004706C5EFD3E08B8191E090932803809320
:100E40004A031092290310924B03612F89EE93E01D
:100E50000E9413060E94060461E08B810E94ED044B
:100E60001092DB028093DA0289EE93E00E94CC05B7
:100E7000DF91CF911F910895FC0101900020E9F7C7
:100E80003197AF01481B590BBC018CE493E00C94E3
:100E900087018F929F92AF92BF920F931F93CF9330
:100EA000DF93CDB7DEB7A1970FB6F894DEBF0FBEC4
:100EB000CDBF19A2423008F44AE08E010F5D1F4FEA
:100EC000842E912CB12CA12CA50194010E94D71144
:100ED000E62FB901CA01EA30F4F4E05DD801EE93DF
:100EE0008D01232B242B252B79F790E080E01097A0
:100EF00019F0CD010E943C07A1960FB6F894DEBF11
:100F00000FBECDBFDF91CF911F910F91BF90AF90DA
:100F10009F908F900895E95CE1CF0C949D128F9281
:100F20009F92AF92BF92CF92DF92EF92FF920F9378
:100F30001F93CF93DF93CDB7DEB762970FB6F894C8
:100F4000DEBF0FBECDBF8B01FB01349620E2DF0177
:100F50001D922A95E9F744E250E060E070E0F80164
:100F60004083518362837383DC0114964D915D91BC
:100F70006D917C911797448355836683778343E013
:100F800050E060E070E040875187628773872FB739
:100F9000F8944091CD025091CE026091CF027091B1
:100FA000D0022FBF408B518B628B738B2CE0FE01E4
:100FB0003196DF011D922A95E9F7AE01435F5F4F3D
:100FC00026E0FA0111922A95E9F726E06AE170E03D
:100FD0000E94D7066D857E85072E000C880B990B25
:100FE0000E94A20E20E030E040E85DE30E94010F85
:100FF0004B015C016F857889072E000C880B990BDB
:101000000E94A20E20E030E040E85DE30E94010F64
:101010006B017C0169897A89072E000C880B990B7A
:101020000E94A20E20E030E040E85DE30E94010F44
:10103000D80154968D929D92AD92BC925797F8012B
:10104000C08ED18EE28EF38E5C966D937D938D93E0
:101050009C935F9781E062960FB6F894DEBF0FBE57
:10106000CDBFDF91CF911F910F91FF90EF90DF9057
:10107000CF90BF90AF909F908F9008950F931F9344
:10108000CF93DF938C01EB0188E2FB0111928A95EB
:10109000E9F74BE050E068E372E0CE010E941714DC
:1010A0001B8681E090E0A0E0B0E08C879D87AE8752
:1010B000BF87F80184819581A681B781888B998B40
:1010C000AA8BBB8B83E090E0A0E0B0E08C8B9D8B83
:1010D000AE8BBF8B1CA21DA21EA21FA2188E198E42
:1010E0001A8E1B8E1C8E1D8E1E8E1F8E8AE097ED13
:1010F000A3E2BCE388A399A3AAA3BBA3DF91CF91EA
:101100001F910F91089585ED8093BC008091240379
:1011100090912503A0912603B09127030796A11D66
:10112000B11D23E0B695A795979587952A95D1F798
:101130002091BC0024FD03C0109222030895409129
:101140002403509125036091260370912703452BBA
:10115000462B472B69F30097A105B10541F025E324
:101160002A95F1F700000197A109B109E1CF80911B
:1011700023030C94E5031F920F920FB60F921124D4
:101180000BB60F922F933F934F935F936F937F9381
:101190008F939F93AF93BF93EF93FF938CE493E070
:1011A0000E94FB01FF91EF91BF91AF919F918F91B1
:1011B0007F916F915F914F913F912F910F900BBE57
:1011C0000F900FBE0F901F9018951F920F920FB6A1
:1011D0000F9211240BB60F922F938F939F93EF933F
:1011E000FF93E0915C03F0915D038081E0916203E5
:1011F000F091630382FD1DC09081809165038F5F34
:101200008F7320916603821741F0E0916503F0E04F
:10121000E45BFC4F958F80936503FF91EF919F9165
:101220008F912F910F900BBE0F900FBE0F901F90BC
:1012300018958081F2CF1F920F920FB60F92112452
:101240002F933F938F939F93AF93BF938091CD0242
:101250009091CE02A091CF02B091D0023091CC02F9
:1012600023E0230F2D3758F50196A11DB11D2093C2
:10127000CC028093CD029093CE02A093CF02B09384
:10128000D0028091D1029091D202A091D302B0916C
:10129000D4020196A11DB11D8093D1029093D20278
:1012A000A093D302B093D402BF91AF919F918F913D
:1012B0003F912F910F900FBE0F901F90189526E829
:1012C000230F0296A11DB11DD2CF1F920F920FB610
:1012D0000F9211240BB60F922F933F934F935F936E
:1012E0006F937F938F939F93AF93BF93EF93FF93EE
:1012F0008091B900887F803609F44DC008F040C065
:10130000883209F4A9C028F5803109F49DC0C8F4D9
:10131000882309F4FBC0883009F496C0FF91EF914F
:10132000BF91AF919F918F917F916F915F914F91FD
:101330003F912F910F900BBE0F900FBE0F901F90FB
:101340001895883109F488C0803241F780932003D2
:1013500014C0803409F49DC040F48033B9F388335D
:10136000E9F68093200385ECB0C0803509F485C090
:10137000883509F496C0883489F60E948308CECF58
:10138000883909F48CC038F5883729F050F488364C
:1013900011F0803719F683E0809322031092CB027C
:1013A00057C0883809F47BC0803919F0803809F0BB
:1013B000B5CF8091CB02803208F071C0E091CB02B2
:1013C00081E08E0F8093CB028091BB00F0E0E55569
:1013D000FD4F80833DC0803B39F0E0F4803A09F452
:1013E00079C0883A09F09ACF84E080932203109262
:1013F000AA021092A902E091D702F091D8021995A1
:101400008091A90281110FC081E08093A9021092FE
:10141000890209C0803C09F4A6CF883C09F4A3CF17
:10142000883B09F07BCFE091AA0281E08E0F809388
:10143000AA02F0E0E757FD4F80818093BB009091B6
:10144000AA028091A90229C08091FD028093BB006D
:1014500085EC8093BC0062CF90911F0380911E03A6
:10146000981758F5E0911F0381E08E0F80931F03BA
:10147000F0E0E250FD4F8081E9CFE0911F0381E071
:101480008E0F80931F038091BB00F0E0E250FD4F70
:10149000808390911F0380911E039817C8F285E8FE
:1014A000D8CFE0911F0381E08E0F80931F038091BE
:1014B000BB00F0E0E250FD4F808380912103811159
:1014C0005CCF81E08093FC0284EA8093BC001092A0
:1014D000220324CF85EC8093BC00109222038091DC
:1014E000CB02803230F4E091CB02F0E0E555FD4FC5
:1014F00010826091CB0270E0E091D502F091D602AB
:101500008BEA92E019951092CB0208CF109220033B
:1015100034CF10924F0310924E0388EE93E0A0E078
:10152000B0E08093500390935103A0935203B09383
:1015300053032AE032E030934D0320934C0325EC13
:1015400030E0309359032093580324EC30E030937B
:101550005B0320935A0320EC30E030935D0320932B
:101560005C0321EC30E030935F0320935E0322ECB8
:1015700030E0309361032093600326EC30E0309339
:101580006303209362031092650310926603109226
:101590006703109268031092EC031092EB038093A0
:1015A000ED039093EE03A093EF03B093F0038CE16F
:1015B00092E09093EA038093E9031092080410925A
:1015C000070410920A041092090410920C0410925D
:1015D0000B0461E070E090E080E00E942613009729
:1015E000E9F0909308048093070410920A04109283
:1015F000090420910B0430910C04232B11F4FC01FD
:10160000108210920C0410920B0466E872E0809134
:101610000704909108040E94101414C080910704DC
:1016200090910804009711F00E949D1210920804F6
:101630001092070410920C0410920B0410920A04EA
:10164000109209048EE292E09093F6038093F503E2
:101650008FEF9FEFDC018093F9039093FA03A0933F
:10166000FB03B093FC0329E22093F8038093FD036E
:101670009093FE03A093FF03B093000480930104B2
:1016800090930204A0930304B09304040895CF93AD
:10169000DF93CDB7DEB7E8970FB6F894DEBF0FBE85
:1016A000CDBF789484B5826084BD84B5816084BDEB
:1016B00085B5826085BD85B5816085BD80916E00F0
:1016C000816080936E001092810080918100826021
:1016D000809381008091810081608093810080915E
:1016E00080008160809380008091B100846080934D
:1016F000B1008091B00081608093B0008091910032
:10170000826080939100809191008160809391002C
:10171000809190008160809390008091A100826010
:101720008093A1008091A10081608093A1008091AD
:10173000A00081608093A00080912101826080934D
:1017400021018091210181608093210180912001FC
:1017500081608093200180917A00846080937A0078
:1017600080917A00826080937A0080917A00816013
:1017700080937A0080917A00806880937A0010923A
:10178000C100E0915C03F0915D0382E08083E09111
:101790005803F09159031082E0915A03F0915B03D2
:1017A00080E1808310926403E0916003F091610313
:1017B00086E08083E0915E03F0915F038081806129
:1017C0008083E0915E03F0915F0380818860808375
:1017D000E0915E03F0915F03808180688083E091F7
:1017E0005E03F0915F0380818F7D80831092DB0226
:1017F0001092DA021092290310924B030E94C70341
:1018000085E891E09093D8028093D70286E891E032
:101810009093D6028093D5021092D9029CE0E92ED3
:10182000F12C8091D902883008F09DC08FE392E0BE
:101830000E943C076091D90270E090E080E04AE0AD
:101840000E94490780E592E00E943C071091D9026E
:10185000812F0E94C00690E080E00E941107803A2C
:1018600089F068EE73E080E090E00E946C0390E005
:1018700080E00E941107803A29F085E592E00E94FD
:101880003C07FFCF109206041092050460E08DE340
:1018900090E00E949A066EE170E080E090E00E9485
:1018A0006C0360E28FE390E00E949A0690E080E093
:1018B0000E941107803A39F06AE070E080E090E021
:1018C0000E946C03F3CF62E370E080E090E00E943E
:1018D0006C0360E08EE390E00E949A066AE070E09C
:1018E00080E090E00E946C0360E087E090E00E945E
:1018F0009A0664E281E490E00E949A066AE070E051
:1019000080E090E00E946C0360E082E490E00E943E
:101910009A066AE070E080E090E00E946C0360E06C
:101920008FE390E00E949A066AE070E080E090E029
:101930000E946C03F0920604E09205046CE08DE3D3
:1019400090E00E949A066EE170E080E090E00E94D4
:101950006C0364E170E080E090E00E946C031F5F24
:101960001093D9025ECF68EE73E080E090E00E94B1
:101970006C031E0125E2220E311C18E01092D902E0
:101980008091D902883008F0CAC164EF71E080E02C
:1019900090E00E946C0389E492E00E943C07609111
:1019A000D90270E090E080E04AE00E94490780E5BB
:1019B00092E00E943C078091D9020E94C006BE01BD
:1019C0006F5F7F4F85EF93E00E948F07F101212F1A
:1019D00011922A95E9F728E0A10160E270E085EF15
:1019E00093E00E94D7066BA57CA5072E000C880B00
:1019F000990B0E94A20E20E030E040E858E30E94DC
:101A0000010F4B015C0169A57AA5072E000C880B1C
:101A1000990B0E94A20E20E030E040E858E30E94BB
:101A2000010F6DA77EA78FA798AB6FA178A5072E92
:101A3000000C880B990B0E94A20E20E030E040E8D9
:101A400058E30E94010F2B013C016DA17EA1072EDE
:101A5000000C880B990B0E94A20E20E030E040E8B9
:101A600058E30E94010F69AB7AAB8BAB9CAB9B0137
:101A7000AC010E94010F6B017C012DA53EA54FA575
:101A800058A9CA01B9010E94010F9B01AC01C7010D
:101A9000B6010E94C00F6B017C01A3019201C3013A
:101AA000B2010E94010F9B01AC01C701B6010E9467
:101AB000C00F6B017C01A5019401C501B4010E9416
:101AC000010F9B01AC01C701B6010E94C00F0E942B
:101AD00079119B01AC0160E070E080E89FE30E9417
:101AE0009E106B017C01C501B4019058A7019601BD
:101AF0000E94010F4B015C01A3019201C701B601D5
:101B00000E94010F6DAB7EAB8FAB98AF9B01AC0118
:101B10000E94010F9B01AC0160E070E080E09FE358
:101B20000E94BF0F2B013C01A5019401C501B40126
:101B30000E94010F9B01AC01C301B2010E94BF0FC3
:101B40002B013C0129A93AA94BA95CA9C701B601FF
:101B50000E94010FA50194010E94010F4B015C013D
:101B60002DA53EA54FA558A9C701B6010E94010F9A
:101B70002DA93EA94FA958AD0E94010F9B01AC01B0
:101B8000C501B4010E94C00FA30192010E943F1041
:101B900020EE3EE245E652E40E94010F6B017C011B
:101BA0004B015C01AC019B010E94BD11882319F11E
:101BB00088E792E00E943C078EE9E82E82E0F82E4A
:101BC000F7016491662349F08CE493E00E941D02C2
:101BD000FFEFEF1AFF0A892B99F784E892E00E9441
:101BE0003C0785E390E00E9411078091D9028F5F46
:101BF0008093D902C5CE26013701E89477F82FEFFC
:101C00003FEF4FE75FE7C301B2010E94BD118111B1
:101C10000DC02FEF3FEF4FE75FE7C301B2010E9416
:101C20009B0E18161CF48CE792E0C4CF2FEF3FEF09
:101C30004FE75FE4C701B6010E94661118161CF455
:101C400080E892E0B7CF2FEF3FEF4FE75FECC7019F
:101C5000B6010E949B0E87FDF3CF20E030E0A90182
:101C6000C701B6010E949B0E87FF0BC06DE28CE49A
:101C700093E00E941D0246015701B7FAB094B7F8ED
:101C8000B0942AE037ED43EA5BE3C501B4010E945A
:101C9000C00F4B015C010E9410116B017C010E947E
:101CA000A00E9B01AC01C501B4010E94BF0F4B0106
:101CB0005C014AE0C701B6010E9449076EE28CE46C
:101CC00093E00E941D0220E030E040E251E4C501B3
:101CD000B4010E94010F4B015C010E9410116B01C5
:101CE000F12CE12C4AE0C701B6010E944907C70167
:101CF000B6010E94A00E9B01AC01C501B4010E9477
:101D0000BF0F20E030E040E251E40E94010F0E944A
:101D1000101190E080E04AE00E9449074DCF0E94F8
:101D20008A022CCE8091070490910804009711F04C
:101D30000C949D1208950E94DD0E08F481E0089530
:101D4000E89409C097FB3EF4909580957095619555
:101D50007F4F8F4F9F4F9923A9F0F92F96E9BB270B
:101D60009395F695879577956795B795F111F8CF87
:101D7000FAF4BB0F11F460FF1BC06F5F7F4F8F4FF2
:101D80009F4F16C0882311F096E911C0772321F0E8
:101D90009EE8872F762F05C0662371F096E8862F80
:101DA00070E060E02AF09A95660F771F881FDAF7D7
:101DB000880F9695879597F90895990F0008550F04
:101DC000AA0BE0E8FEEF16161706E807F907C0F0C1
:101DD00012161306E407F50798F0621B730B840BC9
:101DE000950B39F40A2661F0232B242B252B21F4A3
:101DF00008950A2609F4A140A6958FEF811D811D43
:101E000008950E94140F0C94850F0E94770F38F0EC
:101E10000E947E0F20F0952311F00C946E0F0C940D
:101E2000740F11240C94B90F0E94960F70F3959FB4
:101E3000C1F3950F50E0551F629FF001729FBB27C1
:101E4000F00DB11D639FAA27F00DB11DAA1F649F5D
:101E50006627B00DA11D661F829F2227B00DA11D10
:101E6000621F739FB00DA11D621F839FA00D611D96
:101E7000221F749F3327A00D611D231F849F600DB7
:101E8000211D822F762F6A2F11249F5750409AF0E0
:101E9000F1F088234AF0EE0FFF1FBB1F661F771F6C
:101EA000881F91505040A9F79E3F510580F00C9437
:101EB0006E0F0C94B90F5F3FE4F3983ED4F3869510
:101EC00077956795B795F795E7959F5FC1F7FE2BD7
:101ED000880F911D9695879597F9089597F99F67B3
:101EE00080E870E060E008959FEF80EC08950024A2
:101EF0000A941616170618060906089500240A946F
:101F000012161306140605060895092E0394000CF4
:101F100011F4882352F0BB0F40F4BF2B11F460FF83
:101F200004C06F5F7F4F8F4F9F4F089557FD9058AC
:101F3000440F551F59F05F3F71F04795880F97FB8D
:101F4000991F61F09F3F79F0879508951216130647
:101F50001406551FF2CF4695F1DF08C01616170676
:101F60001806991FF1CF86957105610508940895AB
:101F7000E894BB2766277727CB0197F90895505837
:101F8000BB27AA270E94D70F0C94850F0E94770FBA
:101F900038F00E947E0F20F039F49F3F19F426F4A8
:101FA0000C94740F0EF4E095E7FB0C946E0FE92F80
:101FB0000E94960F58F3BA176207730784079507B4
:101FC00020F079F4A6F50C94B80F0EF4E0950B2EE2
:101FD000BA2FA02D0B01B90190010C01CA01A0017B
:101FE0001124FF27591B99F0593F50F4503E68F1D6
:101FF0001A16F040A22F232F342F4427585FF3CF17
:10200000469537952795A795F0405395C9F77EF4E7
:102010001F16BA0B620B730B840BBAF09150A1F030
:10202000FF0FBB1F661F771F881FC2F70EC0BA0FB6
:10203000621F731F841F48F4879577956795B7953E
:10204000F7959E3F08F0B0CF9395880F08F0992739
:10205000EE0F9795879508950E94770F60F080E8BE
:1020600091E009F49EEF0E947E0F28F040E851E0D5
:1020700071F45EEF0CC00C94740F0C94B80FE92F40
:10208000E0780E94960F40F3092E052AB1F3261737
:1020900037074807590738F00E2E07F8E02569F092
:1020A000E025E0640AC0EF6307F8009407FADB015B
:1020B000B9019D01DC01CA01AD01EF930E94B51089
:1020C0000E94850F0E946F105F91552339F02BED10
:1020D0003FE049E450FD49EC0C94C00F0895DF93B4
:1020E000DD27B92FBF7740E85FE3161617064807CC
:1020F0005B0718F4D92F0E946B119F938F937F93E6
:102100006F930E94B911E4EEF0E00E943F110E942B
:10211000850F2F913F914F915F910E94140FDD2306
:1021200051F09058A2EA2AED3FE049EC5FE3D07805
:102130005D270E94D70FDF910C94850F0E94B2108B
:102140000C94850F0E947E0F58F00E94770F40F08C
:1021500029F45F3F29F00C946E0F51110C94B90FC4
:102160000C94740F0E94960F68F39923B1F35523D2
:1021700091F3951B550BBB27AA276217730784079A
:1021800038F09F5F5F4F220F331F441FAA1FA9F330
:1021900035D00E2E3AF0E0E832D091505040E6951E
:1021A000001CCAF72BD0FE2F29D0660F771F881F7F
:1021B000BB1F261737074807AB07B0E809F0BB0B72
:1021C000802DBF01FF2793585F4F3AF09E3F510586
:1021D00078F00C946E0F0C94B90F5F3FE4F3983EC7
:1021E000D4F3869577956795B795F7959F5FC9F76F
:1021F000880F911D9695879597F90895E1E0660FF0
:10220000771F881FBB1F621773078407BA0720F068
:10221000621B730B840BBA0BEE1F88F7E0950895D1
:102220000E949E0F88F09F5798F0B92F9927B751B9
:10223000B0F0E1F0660F771F881F991F1AF0BA956A
:10224000C9F714C0B13091F00E94B80FB1E0089501
:102250000C94B80F672F782F8827B85F39F0B93FF3
:10226000CCF3869577956795B395D9F73EF490951D
:102270008095709561957F4F8F4F9F4F0895DF93A5
:10228000CF931F930F93FF92EF92DF927B018C010C
:10229000689406C0DA2EEF010E94140FFE01E89444
:1022A000A5912591359145915591A6F3EF010E9495
:1022B000D70FFE019701A801DA9469F7DF90EF903C
:1022C000FF900F911F91CF91DF9108950E94DD0E35
:1022D00008F48FEF08959B01AC0160E070E080E8A6
:1022E0009FE30C949E1019F416F40C94740F0C9444
:1022F000C2110E949E0FB8F39923C9F3B6F39F57FA
:10230000550B87FF0E94D0110024A0E640EA9001FF
:1023100080585695979528F4805C660F771F881F24
:1023200020F026173707480730F4621B730B840B25
:10233000202931294A2BA695179407942025312569
:102340004A2758F7660F771F881F20F02617370790
:10235000480730F4620B730B840B200D311D411DB7
:10236000A09581F7B901842F9158880F969587958C
:1023700008959B01AC010C94010F0E94DD0E880BA7
:10238000990B08959F3F31F0915020F487957795F0
:102390006795B795880F911D9695879597F908953C
:1023A00091505040660F771F881FD2F70895A1E221
:1023B0001A2EAA1BBB1BFD010DC0AA1FBB1FEE1FBF
:1023C000FF1FA217B307E407F50720F0A21BB30B0A
:1023D000E40BF50B661F771F881F991F1A9469F786
:1023E00060957095809590959B01AC01BD01CF01E2
:1023F0000895EE0FFF1F881F8BBF0790F691E02D09
:1024000019940F931F93CF93DF938230910510F4AB
:1024100082E090E0E0910F04F091100430E020E0C1
:10242000B0E0A0E0309799F42115310509F44AC0D5
:10243000281B390B24303105D8F58A819B81611521
:10244000710589F1FB0193838283FE0111C04081F4
:1024500051810281138148175907E0F04817590745
:1024600099F4109761F012960C93129713961C939F
:102470003296CF01DF91CF911F910F910895009374
:102480000F0410931004F4CF2115310551F04217B9
:10249000530738F0A901DB019A01BD01DF01F80102
:1024A000C1CFEF01F9CF9093100480930F04CDCFEB
:1024B000FE01E20FF31F819391932250310939837A
:1024C0002883D7CF20910D0430910E04232B41F4A3
:1024D000209102023091030230930E0420930D04E8
:1024E00020910002309101022115310541F42DB7F0
:1024F0003EB74091040250910502241B350BE09138
:102500000D04F0910E04E217F307A0F42E1B3F0B0D
:102510002817390778F0AC014E5F5F4F2417350755
:1025200048F04E0F5F1F50930E0440930D048193AB
:1025300091939FCFF0E0E0E09CCFCF93DF930097A3
:10254000E9F0FC01329713821282A0910F04B0913E
:102550001004ED0130E020E01097A1F420813181DA
:10256000820F931F20910D0430910E042817390714
:1025700009F061C0F0930E04E0930D04DF91CF9158
:102580000895EA01CE17DF07E8F54A815B819E01D5
:1025900041155105B1F7E901FB83EA83499159914E
:1025A000C40FD51FEC17FD0761F48081918102965D
:1025B000840F951FE90199838883828193819B838E
:1025C0008A83F0E0E0E012968D919C91139700973A
:1025D000B9F52D913C911197CD010296820F931F71
:1025E00020910D0430910E042817390739F63097E1
:1025F00051F51092100410920F04B0930E04A093A2
:102600000D04BCCFD383C28340815181840F951FB9
:10261000C817D90761F44E5F5F4F88819981480FD1
:10262000591F518340838A819B8193838283211523
:10263000310509F0B0CFF0931004E0930F049ECF62
:10264000FD01DC01C0CF13821282D7CF4F925F927F
:102650006F927F928F929F92AF92BF92CF92DF92B2
:10266000EF92FF920F931F93CF93DF938C0100970C
:1026700099F4CB01DF91CF911F910F91FF90EF90D3
:10268000DF90CF90BF90AF909F908F907F906F9092
:102690005F904F900C940112FC01E60FF71F9C0114
:1026A00022503109E217F30708F4AEC0D901CD91E9
:1026B000DC911197C617D70720F1C530D10578F006
:1026C000CE0104978617970750F0C61BD70B2297A9
:1026D000C193D1936D937C93CF010E949D12C80149
:1026E000DF91CF911F910F91FF90EF90DF90CF90EE
:1026F000BF90AF909F908F907F906F905F904F9022
:1027000008955B01AC1ABD0A4C018C0E9D1EA09170
:102710000F04B0911004512C412CF12CE12C109796
:1027200031F580910D0490910E048815990509F0FA
:102730005CC04616570608F058C080910002909180
:102740000102009741F48DB79EB740910402509169
:102750000502841B950BE817F90708F055C0F093A4
:102760000E04E0930D04F90171836083B8CF8D915D
:102770009C91119712966C90129713967C901397D8
:10278000A815B90559F56C0142E0C40ED11CCA1454
:10279000DB0420F1AC014A195B09DA0112961597A6
:1027A00080F06282738251834083D9016D937C9360
:1027B000E114F10471F0D7011396FC93EE93129794
:1027C0008ECF22968C0F9D1FF90191838083F30198
:1027D000EFCFF0931004E0930F0481CF4816590611
:1027E00008F42C017D01D3019ACFCB010E94011284
:1027F0007C01009749F0AE01B8010E940714C8019E
:102800000E949D1287016BCF10E000E068CFFB01B2
:10281000DC0102C001900D9241505040D8F708955C
:10282000FB01DC0101900D920020E1F70895FB010E
:10283000DC014150504048F001900D920020C9F752
:1028400001C01D9241505040E0F7089511E0C1E5EC
:10285000D1E000E006C0802FFE010E94F911219610
:10286000011DC235D10780E00807A9F7F894FFCF12
:10287000000011048000000000001D028701B40167
:102880006A02E501C301D701000000001306E60556
:10289000BD06BC05DF05CC05BD05000000009E039C
:1028A0008D079F038F073E08424E4F30353500534A
:1028B00070726177647A616D206B616E616C20006B
:1028C0003A202020004B7572C58261206E6F206E09
:1028D0006965206D61207465676F2067756E77612B
:1028E0002C2067647A6965006E616E00696E66000F
:0828F0006F7666000D0A00007E
:10E000000D9489F10D94B2F10D94B2F10D94B2F129
:10E010000D94B2F10D94B2F10D94B2F10D94B2F1F0
:10E020000D94B2F10D94B2F10D94B2F10D94B2F1E0
:10E030000D94B2F10D94B2F10D94B2F10D94B2F1D0
:10E040000D94B2F10D94B2F10D94B2F10D94B2F1C0
:10E050000D94B2F10D94B2F10D94B2F10D94B2F1B0
:10E060000D94B2F10D94B2F10D94B2F10D94B2F1A0
:10E070000D94B2F10D94B2F10D94B2F10D94B2F190
:10E080000D94B2F10D94B2F10D94B2F10D94B2F180
:10E090000D94B2F10D94B2F10D94B2F10D94B2F170
:10E0A0000D94B2F10D94B2F10D94B2F10D94B2F160
:10E0B0000D94B2F10D94B2F10D94B2F10D94B2F150
:10E0C0000D94B2F10D94B2F10D94B2F10D94B2F140
:10E0D0000D94B2F10D94B2F10D94B2F10D94B2F130
:10E0E0000D94B2F141546D656761323536300041AF
:10E0F000726475696E6F206578706C6F72657220DE
:10E1000073746B3530305632206279204D4C530099
:10E11000426F6F746C6F616465723E004875683F52
:10E1200000436F6D70696C6564206F6E203D200048
:10E130004350552054797065202020203D20005FF9
:10E140005F4156525F415243485F5F3D2000415658
:10E1500052204C696243205665723D20004743437C
:10E160002056657273696F6E203D20004350552024
:10E1700049442020202020203D20004C6F7720663D
:10E18000757365202020203D20004869676820665F
:10E190007573652020203D200045787420667573D6
:10E1A00065202020203D20004C6F636B2066757336
:10E1B000652020203D20004D617220203720323024
:10E1C000313300312E362E3800342E332E350056A2
:10E1D00023202020414444522020206F7020636F70
:10E1E00064652020202020696E73747275637469E1
:10E1F0006F6E2061646472202020496E74657272B3
:10E20000757074006E6F20766563746F7200726A49
:10E210006D702020006A6D70200057686174207056
:10E220006F72743A00506F7274206E6F7420737541
:10E2300070706F72746564004D7573742062652030
:10E2400061206C6574746572002000577269747483
:10E25000696E672045450052656164696E672045B7
:10E26000450045452065727220636E743D00504F35
:10E27000525400303D5A65726F2061646472003FF1
:10E280003D43505520737461747300403D454550C3
:10E29000524F4D207465737400423D426C696E6B41
:10E2A000204C454400453D44756D70204545505215
:10E2B0004F4D00463D44756D7020464C415348001B
:10E2C000483D48656C70004C3D4C69737420492F83
:10E2D0004F20506F72747300513D51756974005234
:10E2E0003D44756D702052414D00563D73686F7707
:10E2F00020696E7465727275707420566563746FF0
:10E30000727300593D506F727420626C696E6B00BD
:10E310002A0011241FBECFEFD1E2DEBFCDBF01E046
:10E320000CBF12E0A0E0B2E0EEE1FDEF03E00BBFB6
:10E3300002C007900D92A030B107D9F712E0A0E01B
:10E34000B2E001C01D92AE30B107E1F70F9460F367
:10E350000D948DFE01E20EBF0FEF0DBF11241FBE05
:10E360000D9460F30D9400F020E030E040ED57E0B4
:10E3700005C0FA013197F1F72F5F3F4F2817390792
:10E38000C0F308959C01260F311DC901A0E0B0E043
:10E390002F5F3F4FABBFFC018791882361F08093D3
:10E3A000C6008091C00086FFFCCF8091C0008064D1
:10E3B0008093C000EACF08958DE08093C6008091DD
:10E3C000C00086FFFCCF8091C00080648093C000B5
:10E3D0008AE08093C6008091C00086FFFCCF8091C8
:10E3E000C00080648093C00008950F94C2F10F9420
:10E3F000DCF10895FC019081992359F09093C600B7
:10E400008091C00086FFFCCF8091C0008064809323
:10E41000C0003196992379F70895282F982F929567
:10E420009F70892F805D8A3308F0895F8093C600D2
:10E430008091C00086FFFCCF8091C00080648093F3
:10E44000C000822F8F70982F905D9A3308F0995FEB
:10E450009093C6008091C00086FFFCCF8091C000E1
:10E4600080648093C00008959C01FB01853691056E
:10E470001CF46330710594F0C90164E670E00F94F8
:10E480002EFE605D7F4F6093C6008091C00086FFC6
:10E49000FCCF8091C00080648093C0002B30310598
:10E4A00014F43297B4F0C90164E670E00F942EFEC4
:10E4B0006AE070E00F942EFE605D7F4F6093C600AF
:10E4C0008091C00086FFFCCF8091C0008064809363
:10E4D000C000C9016AE070E00F942EFEC0968093E0
:10E4E000C6008091C00086FFFCCF8091C000806490
:10E4F0008093C00008951F93182F8EE692EE60E07F
:10E500000F94C2F11093C6008091C00086FFFCCF2B
:10E510008091C00080648093C0000F94DCF11F9153
:10E5200008952F923F924F925F926F927F928F92B7
:10E530009F92AF92BF92CF92DF92EF92FF920F9392
:10E540001F93DF93CF93CDB7DEB762970FB6F894E2
:10E55000DEBF0FBECDBF382E622ECA01DB015C01CB
:10E560006D01772420E2222E2E010894411C511CBB
:10E570008BC081E0A81680E0B80681E0C80680E084
:10E58000D80628F0C601AA27BB270F940DF2BB2797
:10E59000AD2D9C2D8B2D0F940DF28A2D0F940DF225
:10E5A0002092C6008091C00086FFFCCF8091C00001
:10E5B00080648093C0009DE29093C6008091C0006B
:10E5C00086FFFCCF8091C00080648093C0002092C1
:10E5D000C6008091C00086FFFCCF8091C00080649F
:10E5E0008093C00019828601750188249924A1E0D6
:10E5F0003A1651F03A1620F0B2E03B1661F409C029
:10E600000BBFF701779007C0C7010F9477FE782EF4
:10E6100002C0F7017080872D0F940DF22092C60082
:10E620008091C00086FFFCCF8091C0008064809301
:10E63000C000872D8052F401EF70F0708F3520F408
:10E64000E40DF51D708204C0E40DF51D8EE280839B
:10E650000894E11CF11C011D111D0894811C911CE2
:10E6600090E18916910409F0C2CF80E190E0A0E02A
:10E67000B0E0A80EB91ECA1EDB1E198AC2010F9493
:10E68000FAF10F94DCF16A94662009F072CF629679
:10E690000FB6F894DEBF0FBECDBFCF91DF911F91B3
:10E6A0000F91FF90EF90DF90CF90BF90AF909F9031
:10E6B0008F907F906F905F904F903F902F90089534
:10E6C0002F923F924F925F926F927F928F929F9282
:10E6D000AF92BF92CF92DF92EF92FF920F931F9370
:10E6E000DF93CF93CDB7DEB7CD53D1400FB6F894BB
:10E6F000DEBF0FBECDBF01E20EBF0FEF0DBF94B75F
:10E70000F894A89514BE80916000886180936000A1
:10E7100010926000789493FF05C0E0910002F091A0
:10E7200001021995279A2F9A8091C00082608093E8
:10E73000C00080E18093C40088E18093C1000000A4
:10E74000EE24FF24870144E0A42EB12CCC24DD2448
:10E7500024C0C5010197F1F70894E11CF11C011DCB
:10E76000111D21E2E2162EE4F20620E0020720E06D
:10E77000120718F031E0C32ED12CC801B70127ECE5
:10E780003BE140E050E00F9441FE611571058105C9
:10E79000910519F485B1805885B98091C00087FD35
:10E7A00003C0C114D104A9F2A6014F5F5F4FC25E3E
:10E7B000DE4F59834883CE51D140C25EDE4F8881FF
:10E7C0009981CE51D140019711F00D9410FEC05D9A
:10E7D000DE4F19821882C053D14060E0C15DDE4F28
:10E7E0001882CF52D14088249924C35DDE4F19820C
:10E7F0001882CD52D140C05EDE4F188219821A8233
:10E800001B82C052D140CE5CDE4F188219821A8220
:10E810001B82C253D140EE24FF2487010BBFF701B6
:10E8200007911691C45CDE4F19830883CC53D14005
:10E830000D940BFEC25EDE4F28813981CE51D1404E
:10E840002130310509F52091C600C25EDE4F1982E4
:10E850001882CE51D14022C02F5F3F4F4F4F5F4FA4
:10E86000213082E138078AE7480780E0580780F0C6
:10E87000C45CDE4FE881F981CC53D140EF5FFF4F9C
:10E8800019F0EE27FF27099420E030E040E050E047
:10E890008091C00087FFE0CF2091C600C35DDE4FAE
:10E8A00048815981CD52D1404F5F5F4FC35DDE4FEC
:10E8B00059834883CD52D140213209F063C64A3092
:10E8C000510508F05FC60894811C911C53E0851621
:10E8D000910409F059C600E010E018C081E280936D
:10E8E000C6008091C00086FFFCCF8091C00080648C
:10E8F0008093C0002F5F3F4F2931310579F70F9486
:10E90000DCF10F5F1F4F0530110519F020E030E0FA
:10E91000E5CF10920A0210920B0210920C02109294
:10E920000D02109206021092070210920802109235
:10E930000902109202021092030210920402109235
:10E9400005028FEE90EE60E00F94F5F180E191EE1C
:10E9500060E00F94C2F18091C00087FFFCCF9091DE
:10E96000C600903608F09F759032B8F09093C600BC
:10E970008091C00086FFFCCF8091C00080648093AE
:10E98000C000A0E2A093C6008091C00086FFFCCF2B
:10E990008091C00080648093C000983409F4D7C18E
:10E9A0009934B8F4923409F459C1933458F490333B
:10E9B00019F1903308F4E3C59F33A1F1903409F0C5
:10E9C000DEC5BDC0953409F470C1963409F0D7C5D1
:10E9D00098C1923509F42BC2933538F49C3409F46C
:10E9E000F5C1913509F0CBC518C2963509F445C279
:10E9F000993509F0C4C567C483E792EE62E00F94CD
:10EA0000F5F110920602109207021092080210927D
:10EA1000090210920A0210920B0210920C0210923C
:10EA20000D0213C18FE792EE62E00F94F5F18FEEC5
:10EA300090EE60E00F94F5F181E291EE60E00F94CA
:10EA4000C2F187EB91EE60E00F94F5F180E391EE77
:10EA500060E00F94C2F184EE90EE60E00F94F5F167
:10EA60008FE391EE60E00F94C2F186E090E061E008
:10EA700070E00F9434F20F94DCF18DE591EE60E0DC
:10EA80000F94C2F189EC91EE60E00F94F5F18EE401
:10EA900091EE60E00F94C2F183EC91EE60E00F9490
:10EAA000F5F18CE691EE60E00F94C2F18EE10F94E7
:10EAB0000DF288E90F940DF281E00F940DF20F949E
:10EAC000DCF18BE791EE60E00F94C2F119E0E0E039
:10EAD000F0E010935700E4918E2F0F940DF20F94F5
:10EAE000DCF18AE891EE60E00F94C2F1E3E0F0E03F
:10EAF00010935700E4918E2F0F940DF20F94DCF1D8
:10EB000089E991EE60E00F94C2F1E2E0F0E0109349
:10EB10005700E4918E2F0F940DF20F94DCF188EAE8
:10EB200091EE60E00F94C2F1E1E0F0E01093570045
:10EB30001491812F0F940DF20F94DCF107CF8BE825
:10EB400092EE62E00F94F5F18BE492EE60E00F94A8
:10EB5000F5F10F94DCF100E010E019C0C8016F2D51
:10EB60000F947FFEFF2031F489E492EE60E00F9471
:10EB7000C2F10BC0F092C6008091C00086FFFCCFAE
:10EB80008091C00080648093C0000F5F1F4FC80158
:10EB900081519F41A0E0B0E0ABBFFC01F790BAE229
:10EBA000FB1621F0E2E000301E07C1F60F94DCF105
:10EBB0000F94DCF187E592EE60E00F94F5F10F948D
:10EBC000DCF1CC24DD2400E010E01EC0C8010F946D
:10EBD00077FEF82E882331F489E492EE60E00F94FA
:10EBE000C2F10BC08093C6008091C00086FFFCCFAD
:10EBF0008091C00080648093C000FE1419F00894D6
:10EC0000C11CD11C0F5F1F4FC80181519F41A0E063
:10EC1000B0E0ABBFFC01E790FAE2EF1621F022E092
:10EC20000030120799F60F94DCF10F94DCF182E6C4
:10EC300092EE60E00F94C2F1C60161E070E00F94C3
:10EC400034F20F94DCF10F94DCF110920202109276
:10EC50000302109204021092050278CE89E992EE26
:10EC600062E00F94F5F1279A2F9A16C02F9880E052
:10EC700090E0E0EDF7E03197F1F7019684369105E9
:10EC8000C1F72F9A80E090E0E0EDF7E03197F1F7DF
:10EC9000019684369105C1F78091C00087FFE6CFC9
:10ECA0008091C00087FFFCCF64C485EA92EE62E0E9
:10ECB0000F94F5F140910202509103026091040219
:10ECC0007091050281E020E10F9491F2809102029F
:10ECD00090910302A0910402B091050280509F4FD1
:10ECE000AF4FBF4F8093020290930302A0930402A0
:10ECF000B093050280509041A040B04008F426CE69
:10ED0000A4CF83EB92EE62E00F94F5F140910602FE
:10ED100050910702609108027091090280E020E1A1
:10ED20000F9491F28091060290910702A09108023F
:10ED3000B091090280509F4FAF4FBF4F80930602A2
:10ED400090930702A0930802B0930902FFCD80ECD4
:10ED500092EE62E00F94F5F183E792EE60E00F949B
:10ED6000F5F18FE792EE60E00F94F5F18BE892EE0B
:10ED700060E00F94F5F189E992EE60E00F94F5F10F
:10ED800085EA92EE60E00F94F5F183EB92EE60E09D
:10ED90000F94F5F180EC92EE60E00F94F5F187ECC2
:10EDA00092EE60E00F94F5F188ED92EE60E00F9442
:10EDB000F5F18FED92EE60E00F94F5F18AEE92EEB0
:10EDC00060E00F94F5F183E093EEBDCD87EC92EE19
:10EDD00062E00F94F5F181E40F947BF282E40F94EA
:10EDE0007BF283E40F947BF284E40F947BF285E45E
:10EDF0000F947BF286E40F947BF287E40F947BF20E
:10EE000088E40F947BF28AE40F947BF28BE40F94F6
:10EE10007BF28CE40F947BF299CD88ED92EE62E068
:10EE20000F94F5F1772473948824992409C48FED05
:10EE300092EE62E00F94F5F140910A0250910B02BC
:10EE400060910C0270910D0282E020E10F9491F22A
:10EE500080910A0290910B02A0910C02B0910D02D8
:10EE600080509F4FAF4FBF4F80930A0290930B0289
:10EE7000A0930C02B0930D0269CD8AEE92EE62E08F
:10EE80000F94F5F184EE90EE60E00F94F5F18FECC5
:10EE900091EE60E00F94F5F1662477244301CC5D98
:10EEA000DE4F19821882C452D140D401C301B695F5
:10EEB000A79597958795CA5DDE4F88839983AA8326
:10EEC000BB83C652D140CC5DDE4FA881B981C4520C
:10EED000D1401196CC5DDE4FB983A883C452D14096
:10EEE000CD0162E070E00F9434F2B0E2B093C6005E
:10EEF0008091C00086FFFCCF8091C0008064809329
:10EF0000C000EDE2E093C6008091C00086FFFCCF18
:10EF10008091C00080648093C000F0E2F093C6004E
:10EF20008091C00086FFFCCF8091C00080648093F8
:10EF3000C000CA5DDE4FE880F9800A811B81C6529D
:10EF4000D140BB27A12F902F8F2D0F940DF2CA5DBA
:10EF5000DE4F8881C652D1400F940DF2B0E2FB2EF5
:10EF6000F092C6008091C00086FFFCCF8091C00067
:10EF700080648093C0000DE30093C6008091C000C0
:10EF800086FFFCCF8091C00080648093C00010E2B7
:10EF90001093C6008091C00086FFFCCF8091C00016
:10EFA00080648093C0008BBEF3012791C65DDE4F65
:10EFB0002883CA52D140A22EBB24CC24DD2408943D
:10EFC000611C711C811C911C8BBEF3018791282E42
:10EFD0003324442455240894611C711C811C911C09
:10EFE0008BBEF3013791C55DDE4F3883CB52D140E4
:10EFF0000894611C711C811C911C8BBEF30147910C
:10F00000C45DDE4F4883CC52D140ADEFEA2EAFEF66
:10F01000FA2EAFEF0A2FAFEF1A2F6E0C7F1C801E57
:10F02000911E142D032DF22CEE24EA0CFB1C0C1D5A
:10F030001D1D0F940DF220E22093C6008091C000A8
:10F0400086FFFCCF8091C00080648093C000C65DC5
:10F05000DE4F8881CA52D1400F940DF230E23093D6
:10F06000C6008091C00086FFFCCF8091C000806404
:10F070008093C000C45DDE4F8881CC52D1400F9494
:10F080000DF240E24093C6008091C00086FFFCCFA5
:10F090008091C00080648093C000C55DDE4F888190
:10F0A000CB52D1400F940DF250E25093C6008091A4
:10F0B000C00086FFFCCF8091C00080648093C000B8
:10F0C0008FEFE8168FEFF80680E0080780E018075A
:10F0D00031F484E092EE60E00F94C2F1DFC0D80119
:10F0E000C7018070907CA070B0708050904CA040A0
:10F0F000B040D1F52FEF3FE340E050E0E222F322B1
:10F1000004231523CA5DDE4FA880B980CA80DB8046
:10F11000C652D140AE0CBF1CC01ED11EAA0CBB1CD7
:10F12000CC1CDD1C8EE092EE60E00F94C2F1BB2798
:10F13000A12F902F8F2D0F940DF28E2D0F940DF285
:10F1400030E23093C6008091C00086FFFCCF8091F2
:10F15000C00080648093C0004EE34093C60080915D
:10F16000C00086FFFCCF87C08EE09EEFA0E0B0E03D
:10F17000E822F9220A231B239CE0E91694E9F90608
:10F1800090E0090790E0190709F088C0C45DDE4FE0
:10F19000A881CC52D140EA2EFF2400E010E0102FCD
:10F1A0000F2DFE2CEE24C55DDE4FB881CB52D14031
:10F1B000EB0EF11C011D111DD601C501817090706F
:10F1C000A070B070DC0199278827E80EF91E0A1F8D
:10F1D0001B1F20EF30E040E050E0A222B322C42207
:10F1E000D52241E1AA0CBB1CCC1CDD1C4A95D1F7F1
:10F1F000EA0CFB1C0C1D1D1D81E090E0A0E0B0E0BE
:10F20000282239224A225B2235E1220C331C441C7D
:10F21000551C3A95D1F7E20CF31C041D151D57013E
:10F220006801AA0CBB1CCC1CDD1C85E192EE60E0E1
:10F230000F94C2F1C801AA27BB270F940DF2BB2778
:10F24000A12F902F8F2D0F940DF28E2D0F940DF274
:10F2500090E29093C6008091C00086FFFCCF809121
:10F26000C00080648093C000AEE3A093C60080918C
:10F27000C00086FFFCCF8091C00080648093C000F6
:10F28000C601AA27BB270F940DF2BB27AD2D9C2DDD
:10F290008B2D0F940DF28A2D0F940DF20F94DCF14B
:10F2A000CC5DDE4FE881F981C452D140F99709F471
:10F2B0004DCBF4E0EF2EF12C012D112D6E0C7F1CA7
:10F2C000801E911EF2CD83E093EE62E00F94F5F183
:10F2D0008AE192EE60E00F94C2F18091C00087FF56
:10F2E000FCCF1091C6001F751093C6008091C0001E
:10F2F00086FFFCCF8091C00080648093C0000F9493
:10F30000DCF1812F81548A3108F036C1163409F4BA
:10F3100095C0173490F4133409F44EC0143430F40B
:10F320001134F1F0123409F01DC130C0143409F465
:10F3300059C0153409F016C16BC01A3409F4C4C0A1
:10F340001B3438F4173409F48FC0183409F00AC19B
:10F35000A1C01B3409F4D2C01C3409F003C1E8C0B9
:10F360008FEF81B90DC082B1809582B980E090E0C5
:10F37000E0EDF7E03197F1F70196883C9105C1F790
:10F380008091C00087FFEFCF12B8EFC08FEF84B934
:10F390000DC085B1809585B980E090E0E0EDF7E0A3
:10F3A0003197F1F70196883C9105C1F78091C00033
:10F3B00087FFEFCF15B8D9C08FEF87B90DC088B1DF
:10F3C000809588B980E090E0E0EDF7E03197F1F7C3
:10F3D0000196883C9105C1F78091C00087FFEFCF6F
:10F3E00018B8C3C08FEF8AB90DC08BB180958BB9A7
:10F3F00080E090E0E0EDF7E03197F1F70196883C8E
:10F400009105C1F78091C00087FFEFCF1BB8ADC059
:10F410008FEF8DB90DC08EB180958EB980E090E0F0
:10F42000E0EDF7E03197F1F70196883C9105C1F7DF
:10F430008091C00087FFEFCF1EB897C08FEF80BBD1
:10F440000DC081B3809581BB80E090E0E0EDF7E0F6
:10F450003197F1F70196883C9105C1F78091C00082
:10F4600087FFEFCF11BA81C08FEF83BB0DC084B38C
:10F47000809584BB80E090E0E0EDF7E03197F1F714
:10F480000196883C9105C1F78091C00087FFEFCFBE
:10F4900014BA6BC08FEF809301010FC080910201FD
:10F4A00080958093020180E090E0E0EDF7E03197F5
:10F4B000F1F70196883C9105C1F78091C00087FF64
:10F4C000EDCF1092020151C08FEF809304010FC065
:10F4D0008091050180958093050180E090E0E0ED4A
:10F4E000F7E03197F1F70196883C9105C1F78091DB
:10F4F000C00087FFEDCF1092050137C08FEF8093DA
:10F5000007010FC08091080180958093080180E079
:10F5100090E0E0EDF7E03197F1F70196883C910536
:10F52000C1F78091C00087FFEDCF109208011DC088
:10F530008FEF80930A010FC080910B01809580931B
:10F540000B0180E090E0E0EDF7E03197F1F70196F4
:10F55000883C9105C1F78091C00087FFEDCF1092E4
:10F560000B0103C085E292EEEEC98091C00087FFD7
:10F57000FCCF8091C600EAC988E392EEE4C98CE131
:10F5800091EEE1C988249924933011F1943028F444
:10F59000913089F09230B8F408C0953061F195301F
:10F5A000F0F0963009F048C043C02B3109F042C951
:10F5B00091E06BE13FC96227C15DDE4F2883CF52E6
:10F5C000D14092E037C9B22FA0E0622793E032C960
:10F5D000822F90E0A82BB92B622794E02BC92E3004
:10F5E00009F039C3622795E0C05DDE4F19821882A9
:10F5F000C053D1401FC9E1E0F0E0EC0FFD1FC05D3A
:10F60000DE4F08811981C053D140E00FF11F2083E4
:10F610000F5F1F4FC05DDE4F19830883C053D14079
:10F6200062270A171B0709F005C9D80196E002C92D
:10F63000261709F010C303C0973009F0FBC87724E0
:10F640009981933109F412C19431C8F4963009F4C8
:10F65000D8C0973050F4923009F406C1933009F4C1
:10F660006DC0913009F059C253C0913109F477C08F
:10F67000923108F0BBC0903109F04FC2F5C098310B
:10F6800009F487C0993150F4953109F4EFC09531F0
:10F6900008F4C6C1963109F040C2C2C19A3109F4DA
:10F6A0006CC09A3108F491C09B3109F45BC09D3164
:10F6B00009F033C29D81903359F48F81882311F46E
:10F6C0009EE11CC0813011F091E018C098E916C08D
:10F6D000892F807591F0903539F4E0E0F0E089E011
:10F6E0008093570094910AC0983539F4E3E0F0E034
:10F6F00089E080935700949101C090E01A821B82A8
:10F700008D818C831D829E831F8227E030E009C299
:10F710001A8288E08B8381E48C8386E58D8382E581
:10F720008E8389E48F8383E5888780E589878FE5E9
:10F730008A8782E38B872BE030E0F3C18A818139AD
:10F7400041F0823941F0803911F48FE005C080E04A
:10F7500003C082E001C08AE01A828B8344C0772410
:10F76000739482C08D81882311F48EE12CC0813086
:10F7700011F081E028C088E926C01A82E1E0F0E0BB
:10F7800089E08093570084918B831C8224E030E0D1
:10F79000C8C18B81803589F48C81883039F4E2E0EE
:10F7A000F0E089E08093570084910DC0E0E0F0E044
:10F7B00089E080935700849106C0E3E0F0E089E09F
:10F7C0008093570084911A82DFCF8D81836C99E0FA
:10F7D000E1E0F0E0082E90935700E89507B600FCB2
:10F7E000FDCF1A821B8223E030E09BC180EC8A832C
:10F7F000CE5CDE4F188219821A821B82C253D1401E
:10F800008EC18A8190E0A0E0B0E0582F44273327D2
:10F8100022278B8190E0A0E0B0E0DC0199278827C7
:10F82000282B392B4A2B5B2B8D8190E0A0E0B0E098
:10F83000282B392B4A2B5B2B8C8190E0A0E0B0E089
:10F84000BA2FA92F982F8827282B392B4A2B5B2BCF
:10F85000220F331F441F551FC05EDE4F288339839C
:10F860004A835B83C052D1401A8259C13A81C95C34
:10F87000DE4F3883C753D140CA5CDE4F1882C6536F
:10F88000D1408B81C82EDD24CA5CDE4F488159816E
:10F89000C653D140C42AD52A933109F082C0CE5C28
:10F8A000DE4F88819981AA81BB81C253D1408050AB
:10F8B000904CA340B04030F583E0CE5CDE4FE88052
:10F8C000F9800A811B81C253D140F70100935B008C
:10F8D00080935700E89507B600FCFDCFCE5CDE4F65
:10F8E000088119812A813B81C253D14000501F4FAA
:10F8F0002F4F3F4FCE5CDE4F088319832A833B8313
:10F90000C253D140C05EDE4F488159816A817B81FC
:10F91000C052D140DE011B9631E08C9111962C91A2
:10F9200011971296C75CDE4F2883C953D140C85C3B
:10F93000DE4F1882C853D14090E0C85CDE4FE881AA
:10F94000F981C853D1408E2B9F2B0C01FA01609393
:10F950005B0030935700E89511244E5F5F4F6F4F67
:10F960007F4F0EEFE02E0FEFF02ECE0CDF1CC114F8
:10F97000D10499F685E0C05EDE4F088119812A81A5
:10F980003B81C052D140F80120935B008093570027
:10F99000E89507B600FCFDCF81E180935700E8951C
:10F9A00035C0C05EDE4F88819981AA81BB81C0527B
:10F9B000D140B695A795979587957C018601ABE0D8
:10F9C000AA2EB12CAC0EBD1E0BC0D5016D915D01F0
:10F9D000C7010F947FFE0894E11CF11C01501040F8
:10F9E0000115110591F7A60160E070E0440F551F65
:10F9F000661F771FC05EDE4FE880F9800A811B8199
:10FA0000C052D1404E0D5F1D601F711F1A82C05E33
:10FA1000DE4F488359836A837B83C052D1407FC0C5
:10FA2000FA80C55CDE4FF882CB53D140C65CDE4F16
:10FA30001882CA53D1408B81C82EDD24C65CDE4FAC
:10FA400008811981CA53D140C02AD12A1A828981DA
:10FA5000BE016D5F7F4F843121F59601C05EDE4FA0
:10FA6000E880F9800A811B81C052D1400BBFF701A9
:10FA700087919691DB018C9311969C936E5F7F4FDB
:10FA8000D801C7010296A11DB11DC05EDE4F88835B
:10FA90009983AA83BB83C052D14022503040F1F6F3
:10FAA00036C0C05EDE4F288139814A815B81C052F9
:10FAB000D1400894C108D108760100E010E0089414
:10FAC000C11CD11C0894E11CF11C011D111DE20E8A
:10FAD000F31E041F151F21BDBB27A52F942F832FB5
:10FAE00082BD2F5F3F4F4F4F5F4FF89A80B5DB01CC
:10FAF0008D93BD012E153F054007510761F7C05E8C
:10FB0000DE4F288339834A835B83C052D1409601FC
:10FB10002D5F3F4FFB01108204C080EC8A8322E0FE
:10FB200030E08BE18093C6008091C00086FFFCCF5F
:10FB30008091C00080648093C000C15DDE4FF88179
:10FB4000CF52D140F093C6008091C00086FFFCCF19
:10FB50008091C00080648093C000432F3093C60022
:10FB60008091C00086FFFCCF8091C00080648093AC
:10FB7000C000922F2093C6008091C00086FFFCCF6A
:10FB80008091C00080648093C0008EE08093C600A6
:10FB90008091C00086FFFCCF8091C000806480937C
:10FBA000C00065E1C15DDE4FE880CF52D1406E25D7
:10FBB00069276427FE01319610C090819093C6009A
:10FBC0008091C00086FFFCCF31968091C000806498
:10FBD0008093C0006927215030402115310569F715
:10FBE0006093C6008091C00086FFFCCF8091C0006A
:10FBF00080648093C00085B1805885B9772081F4F6
:10FC0000C15DDE4F0881CF52D1400F5FC15DDE4F35
:10FC10000883CF52D14090E0A0E0B0E00D941AF4F8
:10FC200027982F9880E090E020ED37E0F901319798
:10FC3000F1F7019684369105C9F700008091C00064
:10FC40008D7F8093C00081E180935700E895EE2777
:10FC5000FF270994FFCF90E00D941AF497FB092E2B
:10FC600007260AD077FD04D02ED006D000201AF443
:10FC7000709561957F4F0895F6F7909581959F4F08
:10FC80000895A1E21A2EAA1BBB1BFD010DC0AA1FDD
:10FC9000BB1FEE1FFF1FA217B307E407F50720F0F5
:10FCA000A21BB30BE40BF50B661F771F881F991F70
:10FCB0001A9469F760957095809590959B01AC01B9
:10FCC000BD01CF010895AA1BBB1B51E107C0AA1FAC
:10FCD000BB1FA617B70710F0A61BB70B881F991FED
:10FCE0005A95A9F780959095BC01CD010895F99991
:10FCF000FECF92BD81BDF89A992780B50895262F31
:10FD0000F999FECF1FBA92BD81BD20BD0FB6F89400
:0EFD1000FA9AF99A0FBE01960895F894FFCF63
:00000001FF
